:100000000C94C0010C94F8010C94F8010C94031B9F
:100010000C94F8010C94F8010C94F8010C94F8017C
:100020000C94F8010C94F8010C9469170C942517A2
:100030000C9466180C94F8010C94F8010C94F801D7
:100040000C94F8010C94F8010C94F8010C94F8014C
:100050000C94F8010C9442180C94F8010C94F801DB
:100060000C94F8010C94F8010C94F8010C94F8012C
:100070000C94F8010C94F8010C94F8010C94F8011C
:100080000C94F8010C94F8010C94F8010C94F8010C
:100090000C94F8010C94F8010C94F8010C94F801FC
:1000A0000C94F8010C94F8010C94F801290000005C
:1000B00000000000000000002B0014001A000800DF
:1000C00015001700E00004001600070009000A00F0
:1000D000E1001D001B0006001900050000000000E3
:1000E000E200E30001512C002A00000000000000A3
:1000F000000000002D00130012000C0018001C006E
:10010000340033000F000E000D000B00E500380036
:10011000370036001000110000000000E600E70084
:10012000025128002900000000000000000000002B
:100130002B001E001F00200021002200E000000014
:100140000000000000000000E100000000000000CE
:100150000000000000000000E200E30001002C00AD
:100160002A0000000000000000000000010027003D
:100170002600250024002300000000004F0052004C
:1001800051005000E50000004D004B004E004A00B9
:1001900000000000E600E7000351280029000000ED
:1001A00000000000000000002B001E021F022002C1
:1001B00021022202E00035000000000000000000E3
:1001C000E100350200000000000000000000000017
:1001D000E200E30003512C002A00000000000000B0
:1001E000000000000100270226022502240223024B
:1001F000310030002F0000002E002D0031023002AF
:100200002F0200002E022D0200000000E600E70091
:1002100001002800A600000000000000000000000F
:100220002B003A003B003C003D003E00E000BE00D9
:10023000BD00A800AA00A900E10044004500680034
:1002400069006A0000000000E200E30001002C00E9
:100250004C0000000000000000000000000043000F
:100260004200410040003F0000000000000000008C
:1002700000000000E50000006E006D006C006B00E7
:1002800000000000E600E7000100280005010980E9
:10029000A101850319012AB700150126B7009501B0
:1002A00075108100C0050C0901A101850419012AFE
:1002B000A002150126A002950175108100C005015C
:1002C0000906A101050719E029E715002501950890
:1002D000750181029501750881010507190029FF43
:1002E000150026FF009506750881000508190129EB
:1002F00005950575019102950175039101C00902EB
:100300003B00020100A0FA09040000010301010002
:1003100009211101000122400007058103080001A5
:10032000090401000103000000092111010001225C
:1003300032000705820320000112010002000000C4
:100340000821A902000100010200011E03650073DB
:1003500000630064002000640069006F00640065B1
:10036000006C0065007300730000000E03730068EA
:100370000075006B006900650000000403090400BB
:1003800011241FBECFEFDAE0DEBFCDBF04B603FEFF
:1003900018C08091880290918902A0918A02B09140
:1003A0008B028730904BA740B04B59F410928802D3
:1003B0001092890210928A0210928B02E0E0F8E318
:1003C000099511E0A0E0B1E0EAE2F9E302C005908E
:1003D0000D92A639B107D9F722E0A6E9B1E001C034
:1003E0001D92A838B207E1F70E948D180C947D1C6D
:1003F0000C940000FC01AC014B5F5F4F8FEF91E369
:100400002191822728E030E087FF09C0880F8927E3
:1004100021503109C9F7E417F50791F70895880FBE
:10042000F7CFE8EDF0E080818E7F80831092E200CC
:100430001092DA001092E100A0EEB0E08C918160A1
:100440008C9380818F77808319BCA7EDB0E08C916D
:100450008E7F8C9380818F7E808310926E020895B0
:100460002091E4003091E50095E6A9012091EC008F
:10047000822F817020FF06C08091E80080FF06C0B7
:1004800080E008952091E80022FD1AC080917B024F
:10049000882389F0853089F08091EB0085FD0FC0BD
:1004A0002091E4003091E50042175307F9F2915092
:1004B000E1F684E0089582E0089583E0089581E004
:1004C0000895EF92FF920F931F93CF937C018B01BE
:1004D0000E943002C82F811117C08091E80085FD6D
:1004E0000BC08091E8008E778093E8000E94300274
:1004F000882399F3C82F08C0F70181917F01809369
:10050000F1000150110949F78C2FCF911F910F91E4
:10051000FF90EF90089580917D0287FF13C0809136
:10052000E80082FF06C08091E8008B778093E800A6
:1005300004C080917B028111F2CF089580917B02EB
:100540008823D9F38091E80080FFF8CF8091E800FC
:100550008E77ECCF982F9093E900242F762F50E0E0
:10056000891731F07091EC002091ED005091F0006E
:1005700021FD07C09F5F973071F78093E90081E00C
:1005800008953091EB003E7F3093EB003091ED0009
:100590003D7F3093ED003091EB0031603093EB0004
:1005A0007093EC002093ED005093F0002091EE004A
:1005B00027FDE0CF80E00895CF92DF92EF92FF9287
:1005C0000F931F93CF93DF93C8EDD0E088818F7E88
:1005D0008883E7EDF0E080818160808384E082BFE2
:1005E00081E080936E0288818E7F888302EE10E026
:1005F000F80110821092DA0081EEC82ED12CF6019B
:10060000108288818F778883888180688883888139
:100610008F7D888319BC10927B0210927C0210920D
:100620007A021092790290EEE92EF12CF701808186
:100630008B7F808388818160888342E060E080E0F6
:100640000E94AA02F60180818E7F8083F80180815A
:1006500081608083808188608083F70180818E7FC4
:100660008083888180618883DF91CF911F910F9172
:10067000FF90EF90DF90CF900895FC01809183026E
:100680009091840286179707A0F06115710529F4EF
:100690009091E8009E779093E80090E061157105D5
:1006A00051F4911108C08091E80082FF34C080E0CD
:1006B0000895BC01F2CF80917B028823C1F185307F
:1006C000C1F18091E80083FD30C08091E80082FD97
:1006D000EACF8091E80080FFE1CF8091F300209184
:1006E000F200382F6115710519F02830310558F0E6
:1006F00091E02830310509F090E02091E8002E7754
:100700002093E800CBCF81918093F1006150710973
:100710002F5F3F4FE7CF80917B02882341F08530E8
:1007200041F08091E80083FFBECF81E0089582E030
:10073000089583E0089508950895809170020895C2
:100740009C014FB7F8948091670290916802A09144
:100750006902B0916A024FBF821B930B08952FB7B5
:10076000F89460916702709168028091690290919B
:100770006A022FBF08952FB7F89480916702909175
:100780006802A0916902B0916A022FBF089520917A
:100790006402309165022817390771F09093650261
:1007A00080936402E0916202F0916302309721F03D
:1007B0000084F185E02D0994089520916002309124
:1007C00061022817390771F09093610280936002EB
:1007D000E0916202F0916302309721F00680F78188
:1007E000E02D0994089580E008959091480292FFC9
:1007F00006C0282F28712830F9F4877F846093FF82
:1008000006C0282F28712831F1F4877E8461209159
:10081000490220FF06C0382F38713830D9F4877F5D
:10082000816021FF06C0282F28712831D1F4877EEE
:10083000816194FD877E0895282F24712430F9F674
:100840008B7F8860DCCF282F2471243101F78B7EC9
:100850008861DDCF382F3171313019F78E7F886094
:10086000E0CF282F2171213121F78E7E8861E1CFE1
:10087000CF93DF93EC0182389105A9F1D8F581334C
:10088000910509F496C048F58932910509F48AC0AA
:100890008A9709F495C0C11522E5D20708F0B6C0C1
:1008A000C11531E5D30708F026C1C83ED10508F0CF
:1008B0009CC0C03ED10560F5C83AD10508F087C09C
:1008C000C53AD10508F0EFC0C130D10509F1209734
:1008D000F9F0C430D105E0F440C08533910509F446
:1008E0005AC0C997C1F680914802837089F0C0EE62
:1008F000D0E00EC0833E910599F170F4803E9105E1
:1009000001F1823E910539F68091480282FD21C0B5
:10091000CE01DF91CF910895863E910561F1873E2A
:10092000910571F1843E910509F0B5CF809149029E
:1009300081FFEECF80914802C7EED0E084FD0DC06C
:10094000E7CF8091480280FD07C19091490290FF56
:10095000DFCFC3EED0E084FFDBCFD0E0C0E0D8CF64
:100960008091480282FDFBC09091490290FDBFCF6B
:1009700084FFCECFF2CF8091480283FDDDCFC8CF78
:100980008091480283FDEEC09091490291FFF0CF23
:10099000C4EED0E0BDCF8091480285FFB9CFC9E257
:1009A000D0E0B6CF8091480285FFB2CFC5E3D0E05A
:1009B000AFCF8091480286FFABCFCAE2D0E0A8CF8C
:1009C0008091480286FFA4CFC1E3D0E0A1CFCF3B06
:1009D000D10518F6C85AD0E0CC0FDD1FCB59DE4F39
:1009E0000990D881C02DD46493CFC11540E5D407B8
:1009F00008F064C0C11580E4D80708F05CC0CE01DF
:100A00009A9581159F4108F483CFA7CFC11536E58C
:100A1000D30718F5C11545E5D40708F084C0C11502
:100A200084E5D80708F07AC09C2F969596959E018C
:100A300023703327C115D34508F462C0C1E0D0E06C
:100A400002C0CC0FDD1F2A95E2F730E2939FC00170
:100A50001124C82BD92BDA685BCFC1158AE5D807DA
:100A600078F4C11599E5D90708F068C0C11528E5E3
:100A7000D20708F472CFDC2FCC27C06FD06A48CFE2
:100A8000CE0190568115904208F067CF8D2F8F715F
:100A90000E94F50390E0982F882788279F719C017A
:100AA0002C2BE90149C0C55AD0E0CE59DE4FC88190
:100AB000D0E0D0642DCFDF70D06A2ACFCE01E4E041
:100AC00096958795EA95E1F783702C2F26952695C4
:100AD000237040E2249F90011124382B8C2F8370C7
:100AE000C1E0D0E002C0CC0FDD1F8A95E2F7C22B37
:100AF000D32BDC680DCFDC2FCC27C16FD06A08CF99
:100B0000C1E0D0E002C0CC0FDD1F2A95E2F720E261
:100B1000929FC0011124C82BD92BEBCFDC2FCC27FF
:100B2000C46FD06AF5CE8C2F0E94F503C82FD0E099
:100B3000DC2FCC27CC27DF71D062EACE8C2F8F70D0
:100B40000E94F50334E0D695C7953A95E1F7CF704A
:100B50009C2FEC01D069DCCEC9E3D0E0D9CEC2EE47
:100B6000D0E0D6CEC6EED0E0D3CE80910C0281117B
:100B700010920C020895809590910B029823909307
:100B80000B020895EAE9F1E09191891303C0DF01B6
:100B900011971C9291E0E03AF907B1F70895AAE99C
:100BA000B1E0EFEF90E02D91821751F0EF3F19F493
:100BB000211101C0E92F9F5F9630A9F7EF3F09F49B
:100BC00008950E2E000CFF0BE856FE4F8283089509
:100BD000809100029091CF01981301C008958F5F1A
:100BE0008770FACFAF92BF92CF92DF92EF92FF92CF
:100BF0000F931F93CF93DF93C0904402D090450290
:100C0000E0904602F090470240910D0250910E0292
:100C100060910F0270911002C42AD52AE62AF72AA1
:100C2000CFE1D0E0082F10E026E0929F000D111DCB
:100C300011249CE3A92EBC2ED701C6010C2E04C0A2
:100C4000B695A795979587950A94D2F780FD0FC022
:100C5000219788F7B12C8B2DDF91CF911F910F91A8
:100C6000FF90EF90DF90CF90BF90AF900895AC9E33
:100C7000F001AD9EF00D1124E00FF11FEE0FFF1FEC
:100C8000E455FF4F859194910E943804019701F338
:100C9000E2CFCF93DF93EC010E94F205EC2FF0E05E
:100CA00096E0D99FE00DF11D11249CE3899FE00D92
:100CB000F11D1124EE0FFF1FE455FF4F8591949114
:100CC000DF91CF910C943804E92FEE0FE90FEE0F6E
:100CD0008E0F982F977086958695869525E0829F32
:100CE000F0011124EF55FE4F50E040E080E02191EB
:100CF00030E0092E02C0369527950A94E2F721705C
:100D00003327042E01C0220F0A94EAF7822B4F5F8B
:100D10005F4F4530510559F70895E92FEE0FE90F60
:100D2000EE0F8E0F982F977041E001C0440F9A95F7
:100D3000EAF786958695869595E0899FF0011124BE
:100D4000EF55FE4F30E020E070E05191DF01119748
:100D5000CB01022E02C0969587950A94E2F7817026
:100D600081958527842385278C932F5F3F4F2530DE
:100D7000310559F70895FC01808191810E9449064F
:100D800092959F70963091F058F4925F9F709230D8
:100D900058F4803F19F030F4883E30F481E0089533
:100DA0009A5FF4CF843FD1F380E00895883EB0F39A
:100DB000813FD1F7F3CF80936B0270936D02609304
:100DC0006C0280917B02843001F582E08093E9001F
:100DD0008FEF9091E800815095FD06C095ED9A95B2
:100DE000F1F700008111F5CF8091E80085FF0DC07B
:100DF00050E040E063E070E08BE692E00E94610228
:100E00008091E8008E778093E8000895BC0184E02B
:100E10000C94DB06BC0183E00C94DB06CF93DF93DC
:100E2000EC0181E08093E9008FEF9091E800815020
:100E300095FD06C095ED9A95F1F700008111F5CF6B
:100E40008091E80085FF14C050E040E068E070E069
:100E5000CE010E9461028091E8008E778093E800C5
:100E600088E0FE01A1E7B2E001900D928A95E1F7DA
:100E7000DF91CF91089581E08093E00080E280933C
:100E8000D8001092C9008FE19EE40197F1F700C0ED
:100E9000000087E090EBDC01809388029093890248
:100EA000A0938A02B0938B0288E19CE00FB6F8947D
:100EB000A895809360000FBE90936000FFCFAF9223
:100EC000BF92CF92DF92EF92FF920F931F93CF9337
:100ED000DF937C015B016A018091330201E010E045
:100EE0008A3010F40AE010E0C1E0D0E0F894B501D7
:100EF000C701F60109957894811104C021960C1759
:100F00001D075CF4DF91CF911F910F91FF90EF903F
:100F1000DF90CF90BF90AF900895CC9F9001CD9F70
:100F2000300D300D112490E080E045E34A95F1F753
:100F30000000019682179307C1F7D8CF80911B025A
:100F4000811110C08091D80080618093D8008AE11F
:100F50008A95F1F700C08091D90080FF0AC081E036
:100F600080931B0281E090911B02913009F080E098
:100F7000089582E080931B020E94110210927B026E
:100F8000F1CF0E949E07882351F0E0916202F09118
:100F90006302309721F00190F081E02D099480E008
:100FA0000895CF9384E090E00E94251CC82F82E230
:100FB00090E00E94251C982F8C2FCF9108950F93BD
:100FC0001F93CF93DF9300D000D0CDB7DEB7409111
:100FD0002F025091300260913102709132022FB78E
:100FE000F8948091670290916802A0916902B09193
:100FF0006A022FBF841B950BA60BB70B11E084363A
:101000009105A105B10590F10E949E078823C1F1C9
:101010000E94AF036E5F7F4F8F4F9F4F69837A832C
:101020008B839C8380911101909112018B5D9D4F68
:101030004091100150E04530510510F044E050E07F
:10104000BE016F5F7F4F0E94741C82E090E00E949F
:10105000A91B182F882351F00E94AF0360932F0221
:10106000709330028093310290933202812F0F905F
:101070000F900F900F90DF91CF911F910F910895D6
:101080000E94AF0300913402109135022091360284
:1010900030913702600F711F821F931FBBCFEF92F9
:1010A000FF921F93CF93DF9300D000D000D0CDB735
:1010B000DEB77B0190E080E00E94A91B182F8823F7
:1010C00009F480C04091030150E04115510511F031
:1010D00041E050E060910401709105016B5D7D4F2E
:1010E000CE0106960E94741C40912102509122026A
:1010F00060912302709124022FB7F89480916702C7
:1011000090916802A0916902B0916A022FBF841B7E
:10111000950BA60BB70B84369105A105B10540F4DC
:1011200086E292E00E94FA019E81891709F44AC082
:1011300081E090E00E94A91B811116C010E085E0BB
:10114000ECE1F2E0D70101900D928A95E1F7812F51
:1011500026960FB6F894DEBF0FBECDBFDF91CF91BC
:101160001F91FF90EF90089540910B0150E04630A1
:10117000510510F045E050E060910C0170910D01B7
:101180006B5D7D4FCE0101960E94741C86E292E059
:101190000E94FA019E818913D1CF0E94AF03609310
:1011A000210270932202809323029093240285E00F
:1011B000FE013196ACE1B2E001900D928A95E1F723
:1011C00011E0BDCF85E0E6E2F2E0DE01119601908C
:1011D0000D928A95E1F71111EACFB1CFCF92DF924C
:1011E000EF92FF920F931F93CF93DF93CDB7DEB7AC
:1011F0002F970FB6F894DEBF0FBECDBF8E010F5FE5
:101200001F4F8AE0D8011D928A95E9F7F80148E15D
:1012100051E0BE016A5F7F4F6A0186E0E82EF12C43
:1012200031E0D6012D916D012F3F91F0822F8295F3
:101230008F7090E0DC0190968C9190E02F7002C04E
:10124000959587952A95E2F780FD56C0832FF82A59
:10125000330FEA94E110E5CFF1924A5F5F4F6E17CA
:101260007F07D1F64AE050E0B80188E392E00E949F
:10127000671C7C01892B41F08AE0F801A8E3B2E009
:1012800001900D928A95E1F710914302E114F10467
:10129000A9F181E0809313020E94BB039093120294
:1012A0008093110280911102909112020E94A0037A
:1012B000059778F0A8E3B2E0E12FF0E0E65BFD4FA0
:1012C0008DE392E02D9121938A179B07D9F7109215
:1012D000130281E090E0EF28A9F02F960FB6F89462
:1012E000DEBF0FBECDBFDF91CF911F910F91FF9059
:1012F000EF90DF90CF90089580E0A9CF8091130206
:101300008111D0CF0E949E07F82EE09143028823DE
:1013100009F468C06E01BBE0CB0ED11C85E0D6019C
:101320001D928A95E9F70E2F10E0065B1D4F809104
:1013300033028A3020F54FE458E0B601C8010E941C
:101340005F07882359F14FED57E0B601C8010E94AD
:101350005F07882319F1109233028091420290E0D6
:1013600045E050E0B601865B9D4F0E94671C21E07E
:1013700020931A02892B49F5F12C8F2DAECF809145
:101380001402909115020E94A003843F914098F6A8
:1013900080911A02811112C080E09FCF80913302A8
:1013A0008F3F29F08F5F809333028A30B0F20E9422
:1013B000BB039093150280931402EACF85E0F601F7
:1013C00011928A95E9F710921A02A0914202B0E0B8
:1013D000A65BBD4F85E0FE013B9601900D928A957C
:1013E000E1F7CBCFF0E0E65BFD4FF89485E0A6E2B5
:1013F000B2E001900D928A95E1F786E292E00E94B8
:10140000FA01809325027894F894C0902B02D09032
:101410002C02E0902D02F0902E0280911602909105
:101420001702A0911802B0911902C816D906EA064F
:10143000FB06D1F0C0921602D0921702E092180279
:10144000F09219020E949E0781110EC00E94AF0304
:10145000C61AD70AE80AF90AC0923402D0923502B5
:10146000E0923602F0923702789496CF80910B0288
:1014700090910A02892B8093980190910C029923F4
:1014800091F0892B8093980120E08AE991E0FC019A
:101490003191CF0131112F5FF1E0803A9F07B9F709
:1014A00021110E94B50548E050E062E072E088E951
:1014B00091E00E94671C892BA9F088E0E8E9F1E03F
:1014C000A2E0B2E001900D928A95E1F7E09162020C
:1014D000F0916302309731F00280F381E02D88E9CA
:1014E00091E00994089590E080E00E94DD0390E08F
:1014F00080E00E94C70310920A020C94360A60939F
:1015000044027093450280934602909347020C94E4
:10151000730A0F931F9341E050E060E070E004C055
:10152000440F551F661F771F8A95D2F7CB01BA016A
:1015300060957095809590950091440210914502B8
:101540002091460230914702602371238223932326
:101550001F910F910C947F0A90910102809589232D
:1015600080930102282F277091F4282F082E000C59
:10157000330B9217130659F09091490292FD07C060
:101580008595859585950E94890A10920102089596
:101590000F931F9341E050E060E070E004C0440FFF
:1015A000551F661F771F8A95D2F78091440290914C
:1015B0004502A0914602B09147028A019B01082B87
:1015C000192B2A2B3B2BC901B8011F910F910C94A9
:1015D0007F0A60930D0270930E0280930F02909326
:1015E00010020C94730A10920B02EAE9F1E086E013
:1015F000DF011D928A95E9F70C94730A1F93CF932C
:10160000DF93CDB7DEB7AA970FB6F894DEBF0FBE53
:10161000CDBF8DE792E02091F100FC012193CF0135
:10162000F2E085389F07B9F780917E02833009F494
:1016300070C0B8F4813009F447C0823009F4B1C0F9
:101640008091E80083FF7EC280917D0290917E02AE
:101650009A3008F077C2E92FF0E0E158F34E0C948D
:101660001F1C8A3009F48CC08B3009F46FC089309C
:1016700039F780917D02813219F780918102909132
:1016800082020297E8F68091E800877F8093E80065
:101690008091E80082FF38C09091F3008091F200C1
:1016A000029731F48091F100813011F0863021F4FD
:1016B0008091F100809370028091E8008B77809395
:1016C000E8000E948B02BCCF80917D02813A09F034
:1016D000B7CF8091E800877F8093E80080918102F6
:1016E00090918202892B61F468E081E792E070E0DA
:1016F0000E943D038091E8008B778093E800A0CFA3
:1017000060E090E080E0F3CF80917B028111C0CF58
:1017100097CF80917D02813A09F092CF809181022A
:1017200090918202892B09F08BCF8091E800877F0E
:101730008093E8008091E80080FFFCCF8091430116
:101740008093F1008091E8008E77B9CF80917D027F
:10175000813209F075CF8091810290918202892BAC
:1017600009F06ECF8091E800877F8093E8000E94A7
:101770008B0280917F02809343010E94F30A60CF25
:1017800080917D02813209F05BCF8091E800877FF4
:101790008093E8000E948B028091800280936F0208
:1017A0004FCF80917D02813A09F04ACF8091E800C5
:1017B000877F8093E8008091E80080FFFCCF8091D4
:1017C0006F02BECF803899F0823809F0BBC180919A
:1017D00081028F70873008F0B5C18093E900809155
:1017E000EB0085FB882780F91092E90006C0809104
:1017F000790290917A02911182609091E800977F2E
:101800009093E8008093F1001092F1008091E8003D
:101810008E7794C1882309F482C1823009F092C185
:1018200080917F02811185C1809181028F702FEF9D
:10183000280F263008F086C18093E9002091EB0044
:1018400020FF77C1933031F48091EB008062809368
:10185000EB006FC19091EB0090619093EB0021E061
:1018600030E001C0220F8A95EAF72093EA00109237
:10187000EA008091EB008860EACF811163C110918A
:101880007F021F778091E3008078812B8093E300B3
:101890008091E800877F8093E8000E948B0280910E
:1018A000E80080FFFCCF8091E30080688093E30034
:1018B00082E0111183E080937B0244C18058823022
:1018C00008F040C180917F02909180028C3D23E01E
:1018D0009207A1F583E08A838AE289834FB7F8945F
:1018E000DE01139620E03EE051E2E32FF0E050935A
:1018F0005700E49120FF03C0E295EF703F5FEF7067
:101900008E2F90E0EA30C0F0C7968D939D932F5FA5
:10191000243159F74FBF8091E800877F8093E8001A
:101920006AE270E0CE0101960E943D038091E800DA
:101930008B778093E80006C1C096E7CF4091810283
:1019400050918202292F33272330310509F444C0F6
:1019500078F52130310509F46FC08BE390E0EEEFAC
:10196000F2E02230310509F0EDC02091E800277F38
:101970002093E8002091830230918402821793071C
:1019800008F49C0140E02115310509F064C04111C3
:1019900062C08091E80082FDC9CF80917B028823DC
:1019A00029F2853019F28091E80083FFF2CFBECF93
:1019B00021323105A9F12232310509F0C3C04115A8
:1019C000510509F443C04130510509F0BBC082E321
:1019D00090E0ECE8F2E0C9CF992781309105C1F0A1
:1019E000009759F0029709F0ADC0EBE4F3E0E49101
:1019F0008E2F90E0EBE4F3E007C0EBE7F3E0E49137
:101A00008E2F90E0EBE7F3E0009709F49BC0ADCF99
:101A1000EBE6F3E0E4918E2F90E0EBE6F3E0F4CF19
:101A20004115510571F04130510509F08BC089E035
:101A300090E0E9E2F3E099CF82E190E0E9E3F3E0BE
:101A400094CF89E090E0E0E1F3E08FCF80E490E094
:101A5000EEEBF2E08ACF80917B02882309F466CF17
:101A6000853009F463CF8091E80083FD5FCF8091DA
:101A7000E80082FD8ECF8091E80080FF84CF9091B6
:101A8000F3008091F2002115310519F0883091059D
:101A900050F041E0089709F040E08091E8008E772F
:101AA0008093E80070CF44914093F100319621502B
:101AB00031090196E8CF803809F044C08091E800F0
:101AC000877F8093E80080917C028093F1009ECE16
:101AD000811138C010917F021230A0F58091E8008A
:101AE000877F8093E80010937C020E948B02112371
:101AF00011F084E005C08091E30087FDFACF81E01A
:101B000080937B0242E061EC81E00E94AA0242E203
:101B100061EC82E00E94AA0280917B0213C0809156
:101B20007F02813079F481E0933009F080E0809386
:101B30007A021092E9008091E800877F8093E800A4
:101B40000E948B028091E80083FF0AC08091E80028
:101B5000877F8093E8008091EB0080628093EB00A8
:101B6000AA960FB6F894DEBF0FBECDBFDF91CF911E
:101B70001F910895882321F00E94BB050C94360A1A
:101B80000895882339F090910B02982B90930B02C3
:101B90000C94360A0895882309F44BC0823871F4F6
:101BA0000E94C10781FF45C089E30E94CF050E94C2
:101BB000360A89E30E94C2050C94360A833859F428
:101BC0000E94C10780FF35C083E50E94CF050E94B7
:101BD000360A83E5EFCF843859F40E94C10782FFAB
:101BE00028C087E40E94CF050E94360A87E4E2CF2E
:101BF0009CEF980F913AF0F290E2980F983050F4E1
:101C0000877091E001C0990F8A95EAF7892F0E94A9
:101C1000BB05D2CF9BE5980F933020F490E080E095
:101C20000C94DD03885A873120F490E080E00C9416
:101C3000C7030895CF93C82F882309F488C082383A
:101C4000C1F40E94C10781FD82C089E30E94CF05D3
:101C50000E94360A2FEF81EE94E0215080409040A0
:101C6000E1F700C0000089E30E94C205CF910C9407
:101C7000360A8338A1F40E94C10780FD68C083E55D
:101C80000E94CF050E94360A2FEF81EE94E021508A
:101C900080409040E1F700C0000083E5E5CF843844
:101CA000A1F40E94C10782FD52C087E40E94CF05C3
:101CB0000E94360A2FEF81EE94E021508040904040
:101CC000E1F700C0000087E4CFCF8CEF8C0F813AA2
:101CD00068F4EAE9F1E08191C81799F121E0E03A6E
:101CE000F207C9F78C2F0E94CF05C0CF80E28C0F7E
:101CF000883068F4C77021E030E001C0220FCA9537
:101D0000EAF780910B02822B80930B02AFCFEBE5B9
:101D1000EC0FE33040F4F0E0EE59FE4F808190E0AC
:101D2000CF910C94DD03C85AC73188F4EC2FF0E052
:101D3000EE0FFF1FEB59FE4F80819181CF910C94E4
:101D4000C7038C2F0E94C2050E94360ACBCFCF91C9
:101D500008950F931F93CF93DF93C62FD42F022F95
:101D6000FC0182818823A1F0609387020E94BB035B
:101D70009093860280938502C77081E001C0880F2E
:101D8000CA95EAF7DF91CF911F910F910C94C10D85
:101D900080918702681338C08091850290918602F5
:101DA0000E94A003883C910578F510E21D0FCD1725
:101DB000B9F080E28C0F883040F4C77081E001C038
:101DC000880FCA95EAF70E94BA0D183048F481E0EE
:101DD0009D2F977001C0880F9A95EAF70E94C10D58
:101DE000802F0E941A0E802F0E94CB0D183098F47D
:101DF000D77081E001C0880FDA95EAF7DF91CF91C3
:101E00001F910F910C94BA0DC77081E001C0880F2B
:101E1000CA95EAF7F3CFDF91CF911F910F91089503
:101E200069EE7EEF90E080E00E94511C60E082E06D
:101E300090E00E94331C60E083E090E00E94331C3D
:101E400010920D0210920E0210920F0210921002C8
:101E500060E084E090E00E94331C60E082E290E069
:101E60000E94331C60E085E090E00E94331C60E03B
:101E700086E090E00E94331C6FEF87E090E00E94C4
:101E8000331C40E050E0BA0188E090E00E94451C1D
:101E900060E08DE090E00E94331C40E050E0BA0129
:101EA00088E190E00E94451C60E087E190E00E949C
:101EB000331C40E050E0BA018CE190E00E94451CE8
:101EC00070E060E080E290E00E94511C40E050E051
:101ED000BA0188E190E00E94451C40E050E0BA0160
:101EE0008FE090E00E94451C40E050E0BA0183E1A1
:101EF00090E00C94451CCF93C0914902C2FB9927F6
:101F000090F9981799F080FBC2F9C093490260914B
:101F1000480284E090E00E94331C6C2F82E290E043
:101F20000E94331C82E0CF910C94AC0ACF910895AB
:101F30004F925F926F927F928F929F92AF92BF92D9
:101F4000CF92DF92EF92FF920F931F93CF93DF9385
:101F500000D000D00F92CDB7DEB77C01FC018381A9
:101F60009481892B39F01081D180812F8D218F3F71
:101F700009F076C40F900F900F900F900F90DF91A3
:101F8000CF911F910F91FF90EF90DF90CF90BF9076
:101F9000AF909F908F907F906F905F904F9008953B
:101FA0000E94F205082F682F89819A810E948D0670
:101FB000E12FF0E026E0D29EE00DF11D11243CE37C
:101FC000039FE00DF11D1124EE0FFF1FE455FF4F9D
:101FD00005911491043F8CE5180709F49CC0D0F5D5
:101FE000093DECE51E0709F492C00A3DFCE51F0718
:101FF00009F49DC0083D2CE51207D1F526E241EE1B
:1020000061EEC7010E94A90E80910102877009F458
:10201000B1CFF7018281882309F4ACCF80914902C6
:1020200082FDA8CF82E00F900F900F900F900F903D
:10203000DF91CF911F910F91FF90EF90DF90CF90A4
:10204000BF90AF909F908F907F906F905F904F90D8
:102050000C94AC0A063F3CE5130709F464C008F48D
:102060005EC027E245EE66EE073F9CE5190749F2A0
:10207000F7018281882309F404C410928702043096
:10208000FDE51F0708F056C00B3F2CE5120730F4A2
:10209000C80182509C45449708F056C00E94D10761
:1020A000909349028093480201319CE5190709F495
:1020B0001FC108F09DC00930FCE51F0709F402C1EB
:1020C00008F06AC005303CE5130709F4F3C008F0D6
:1020D00050C003309CE5190709F4E2C008F0E6C0DF
:1020E00080914802816002301C4509F4DCC0609197
:1020F00048021091490284E090E00E94331C612F55
:1021000082E290E00E94331C0E94F30A7DCF27E216
:1021100045EE65EE76CF26E241EE60EE72CF27E225
:1021200045EE64EE6ECF26E241EE62EE6ACF28E223
:1021300041E0EFCF02363DE5130709F4AFCF063A91
:102140008DE5180709F4AACF06312CE5120709F02E
:10215000A3C380910B028A7A91E009F490E09093F6
:10216000A0018111EFC089E20E94CF050E94360ACA
:102170004BCF80914802806207302CE5120709F4AA
:1021800092C080914802806108301C4508F48BC0E1
:1021900080914802806487C00D308CE5180709F4EF
:1021A0009BC098F4809148028E7F0B30ECE51E07AF
:1021B00009F479C0809148028C600C301C4508F409
:1021C00072C0809148028D7F6EC0809148028F7EE0
:1021D0000F302CE5120709F466C080914802877F12
:1021E00000311C4508F45FC0809148028F7D5BC0C0
:1021F0000E3F8CE5180709F477C050F50531ECE582
:102200001E0709F47FC098F480914802837F033150
:102210002CE5120709F447C008F46EC00E94F30AC7
:1022200090914802892F97FB87F980583CC00C3F5A
:102230008CE5180709F442C008F052C080914902A9
:1022400081600B3F1C4509F052CF809349024FCF6C
:102250000230FDE51F0709F461C090F48091490246
:102260008C7F01153DE5130781F390F180914902C0
:10227000982F909591708E7F892B90FB81F9E5CFF7
:1022800002369DE5190709F44FC0063AEDE51E0731
:1022900009F451C003301D4509F029CF60E03FC06B
:1022A0008091480282608093480221CF8091480249
:1022B0008460F9CF809148028860F5CF809149020F
:1022C0008260C3CF0E94F30A809148028068EBCFFE
:1022D000809149028360B9CF809148028B7FE3CF20
:1022E000809149028E7FB1CF809149028D7FADCF21
:1022F000809148028F7BD7CF0E94F30A80914802D9
:102300008F77D1CF8091480282FB992790F921E005
:10231000922790FB82F990FB83F9C5CF61E08EE0B4
:1023200090E00E94331CE3CE90914802892F8F7E6B
:1023300094FF8061B8CF90914802892F8E7F90FFE3
:102340008160B1CF85E310CF85E3A3C20E94F30A79
:102350003FEF84E39CE0315080409040E1F700C0C3
:1023600000000E943B0781E0B7C280E0B5C2812F28
:10237000902F0E946406D82EC2C2212F2F70C22E29
:10238000107F19F0C29420EFC222DD20B9F0CC20DA
:1023900069F080E2800F883010F0811009C08091D0
:1023A0000B02C82AC0920B020E94360A802F4BC033
:1023B00080910A02C82AC0920A02F6CF802F0E949A
:1023C000CB0DCC2009F441C0005E083010F0811024
:1023D00004C08C2D0E94BB0506C0C09480910A02E7
:1023E000C822C0920A020E94360A2FC0312F3F70C5
:1023F000C32E107F103219F0C29490EFC9228820AA
:1024000089F081E0881609F488C0DD2009F492C0C3
:10241000992009F488C0F701858180FFC7CF8F70AC
:10242000858381C02091490222FF54C0DD2009F438
:102430004AC0CC2039F080910B02C82AC0920B020E
:102440000E94360A80E00E941A0EEA2DE850FF0B27
:10245000349710F40E94C107BB20A9F080910102BB
:1024600080FD11C0F70112828595859585950E94A2
:10247000C80AC7010E94980F809101028595859531
:1024800085950E94890A85E0F701DE011196019089
:102490000D928A95E1F789819A810E9464069A815A
:1024A000E981F0E026E0929FE00DF11D11243CE36C
:1024B000839FE00DF11D1124EE0FFF1FE455FF4F28
:1024C0008591949157CD80E00E94CB0DCC2009F4EA
:1024D000BCCF7FCFDD20A1F090910C028C2D892BF9
:1024E000911003C00E94C10DB0CFE1E09E12FACF5F
:1024F00022FDABCF981709F4A8CF80930C02A5CF8B
:10250000911006C00E94B5058C2D0E94BA0D9DCF7A
:10251000F1E09F1609F499CFF5CFDD2031F025E0E9
:10252000291508F492CF8C2DDDCF34E0391508F44D
:102530008CCFEACF992041F3F9E38F128AC12FEFB4
:1025400037EE83E0215030408040E1F700C00000CA
:1025500080C1812F86958695837061F0813009F066
:1025600074CFC8019370D11002C090E080E00E9447
:10257000C7036BCFC8019370D11002C090E080E018
:102580000E94DD0362CF812F837009F066C0D110F5
:102590005CCF802F829586958770880F880F602F7B
:1025A0006F70462E512C712C612C082E04C0440CE7
:1025B000551C661C771C0A94D2F740E050E0BA0123
:1025C00004FF0FC04FE050E060E070E004C0440F33
:1025D000551F661F771F8A95D2F7409550956095D5
:1025E0007095812F869586958370823019F1D8F485
:1025F00000910D0210910E0220910F0230911002F5
:10260000813069F04429552966297729CB01BA011F
:1026100060237123822393230E94E90A16CF402A64
:10262000512A622A732ACB01BA01642975298629A5
:102630009729F2CF442955296629772900910D025F
:1026400010910E0220910F0230911002CB01BA01BD
:102650006027712782279327DFCF8695DD2011F031
:10266000812F8170882309F4F0CE802F8295869582
:102670008770880F880F602F6F70462E512C712C39
:10268000612C082E04C0440C551C661C771C0A944F
:10269000D2F740E050E0BA0104FF0FC04FE050E035
:1026A00060E070E004C0440F551F661F771F8A95D5
:1026B000D2F74095509560957095812F86958695B7
:1026C0008370823019F1D8F40091440210914502D0
:1026D0002091460230914702813069F04429552902
:1026E00066297729CB01BA016023712382239323C2
:1026F0000E947F0AAACE402A512A622A732ACB015D
:10270000BA016429752986299729F2CF44295529C8
:1027100066297729009144021091450220914602D2
:1027200030914702CB01BA01602771278227932796
:10273000DFCF1F70DD2029F0812F0E94C80A802F73
:10274000D1CE802F0E94BA0D812F0E94890A7DCEA2
:10275000802F92EF891609F43FC0981570F0E0EFD2
:102760008E16D1F0F1EF8F1691F0DD2009F46CC0D8
:1027700091101CCE812F8F7133C023EF821699F1F7
:1027800034EF8312F2CF8091490282FF3FC0812F44
:102790008F71DD20D1F224C0DD20C9F084E08915DD
:1027A00008F453CE1F7161E070E080E090E004C057
:1027B000660F771F881F991F1A95D2F70091440260
:1027C000109145022091460230914702ADCF95E02D
:1027D000991508F43ACEE6CF812F8F71D110B5CF7D
:1027E0000E94C80A32CE60E070E0CB01DD2009F41F
:1027F0007FCF1F7161E070E080E090E004C0660F61
:10280000771F881F991F1A95D2F772CFDD2089F0A4
:102810001F71812F0E94C80A8091490282FD07C062
:10282000E8E01E9FC0011124836080930102812F84
:10283000D7CF81E00E94AC0AF1E0F91508F005CE8F
:1028400082E00E94AC0A01CE992039F0893309F464
:1028500076CE802F0E94CB0DF8CD812F8F7175CF52
:1028600085E0DE01119601900D928A95E1F7F7015E
:10287000228189819A81211193CB0E946406082FBD
:1028800097CB06311C4551F58091A00181115CCD9B
:1028900089E20E94C2056ACC0B352DE5120709F4C6
:1028A00062CD58F401158CE5180709F44FCD0F3DA2
:1028B0001C45A1F40E94100FA7CB0C35EDE51E07B7
:1028C00009F453CD0D351D4549F48091490282FB31
:1028D000882780F991E089270E947B0FF701828188
:1028E00010810181882309F442CD812F902F0E940D
:1028F000F205D82E682F812F902F0E948D06E12F90
:10290000F0E026E0029FE00DF11D11243CE3D39E90
:10291000E00DF11D1124EE0FFF1FE455FF4F8591CF
:1029200094910E9438048C01882EF701D280958002
:1029300092945FE09522809101028770C1F0BD2CD6
:10294000DD20B1F0812F807F803421F080E2800F84
:10295000883068F08091490282FD09C082E00E94BF
:10296000AC0A809101028770BB24B3948111B12C11
:10297000A12EA2943FE0A322FBE0FA1508F465CD56
:10298000EA2DF0E0E757F34E0C941F1C1F93CF93F2
:10299000DF938091CE01807FA9F48091CB018823C1
:1029A00089F080910002D091CF016091C9017091AE
:1029B000CA01A091CC01B091CD01C62FC72316E06A
:1029C000D81304C0DF91CF911F91089590E0109724
:1029D00011F0CF3F19F401968770F2CF189F900144
:1029E000199F300D1124F901E053FE4F4181471327
:1029F000F2CF40814613EFCF42814111ECCF4381AA
:102A000054814A1B5B0B483C510528F78091CE014D
:102A10008F7080618093CE01F901EB52FE4F80816F
:102A20008F708061808389EC91E00E94980FDF9124
:102A3000CF911F910C94E805AF92BF92CF92DF9295
:102A4000EF92FF920F931F93CF93DF93CDB7DEB733
:102A500061970FB6F894DEBF0FBECDBF8C0185E045
:102A6000F801DE011D9601900D928A95E1F7F801BB
:102A7000E28089ECA82E81E0B82E6091CC017091A3
:102A8000CD016115710509F432C19091C9014091E0
:102A9000CA01892F84238F3F09F429C12081318104
:102AA000C380D480F090CB01F601E61BF70BFF202A
:102AB00009F4E8C08091CE01582F507FE83CF10521
:102AC00008F0ABC0511177C0FE2C431321C0921304
:102AD0001FC0E1101DC08F7080618093CE01C501C1
:102AE0000E94980F8091CE01F80185838F2D619609
:102AF0000FB6F894DEBF0FBECDBFDF91CF911F910F
:102B00000F91FF90EF90DF90CF90BF90AF9008951E
:102B1000CD2829F0822F83238F3F09F003C180E065
:102B2000F82FF170DF2E80FF3CC0809100024091B1
:102B3000CF0156E0841315C02D873E878D859E8575
:102B40000E944906292F22952F702230F0F0243060
:102B500018F59F70F1F0F8019581907FD1F4D12C98
:102B60001EC090E0589FF001599FF00D1124E053D2
:102B7000FE4F6181361306C06081261303C0628157
:102B8000E6120FC001968770D5CF9F7011F0882391
:102B900031F3805E883018F3C8010E94980FFD2C35
:102BA000A5CFEE2009F4A2CF8091CE018160809361
:102BB000CE01F12C9BCF431306C0921304C0F80141
:102BC000EE2009F479C0C8010E94BB06882309F1F0
:102BD000EE20F9F08091CE01803270F02091C90191
:102BE0003091CA0138872F831986DB86CA868C8785
:102BF000CE0107960E94980F86E0F801A9ECB1E09B
:102C000001900D928A95E1F70E94C614FF24F39477
:102C10006DCFC8010E94980FF9CF51110AC089ECFD
:102C200091E00E94980F86E0F50111928A95E9F7EC
:102C3000C0CF43130FC092130DC0E1100BC0F801B9
:102C40008583C8010E94980F86E0F50111928A954C
:102C5000E9F74CCFC8010E94BB068823D1F2EE20D1
:102C6000C1F28091CE01803238F22091C9013091B9
:102C7000CA013A8329831B82DD82CC828E83CE01F6
:102C80000196B8CFE83CF105F8F6FE2CEE2009F2EB
:102C900043131FC092131DC08091CE0180FD10C050
:102CA000982F907F69F0F8018583903F31F0982F3D
:102CB000907F905F8F70892B8583C8010E94980F49
:102CC00086E0F801A9ECB1E001900D928A95E1F758
:102CD0000DCFC8010E94BB0681118ECF8091CE011D
:102CE00081608093CE01C8010E94980FFFCEEE2034
:102CF00009F48FCFC8010E94BB06F82E882309F47F
:102D000088CF86E0F801A9ECB1E001900D928A9598
:102D1000E1F78091C9019091CA010E9449060E9481
:102D2000C614E4CE81E08E25FBCE1F93CF93DF93B4
:102D3000CDB7DEB767970FB6F894DEBF0FBECDBF35
:102D40004B8B5C8B6D8B7E8B8F8B611110920A028B
:102D50001A8A198A85E0FE017396DE011D9601909C
:102D60000D928A95E1F786E0FE013D96DE01179609
:102D700001900D928A95E1F7CE0107960E941C15ED
:102D8000882389F016E0809100029091CF01891389
:102D900049C067960FB6F894DEBF0FBECDBFDF9176
:102DA000CF911F91089586E0FE013796DE011196BE
:102DB00001900D928A95E1F78A859B85892B11F305
:102DC0008F81988589238F3FE9F22091CF0130E0F0
:102DD000C90101968770992740910002481719068A
:102DE00071F40E94F30A1092CF011092000286E063
:102DF000E9ECF1E0DF011D928A95E9F7C3CF96E097
:102E0000929FD001939FB00D1124A053BE4FFE019D
:102E1000319601900D929A95E1F78093CF010E942F
:102E2000E805B0CF819FC001112480539E4F0E94BE
:102E30001C15882309F4ADCF8091000290E0019623
:102E400087709927809300029ECF1F920F920FB632
:102E50000F9211242F933F934F935F936F937F9320
:102E60008F939F93AF93BF93CF93DF93EF93FF9392
:102E7000D091E900DF708091EC00C82FC17080FD17
:102E8000C0E81092E9008091F000877F8093F00005
:102E900078940E94FE0A1092E9008091F000886008
:102EA0008093F000CD2BCF70C093E900FF91EF919C
:102EB000DF91CF91BF91AF919F918F917F916F9152
:102EC0005F914F913F912F910F900FBE0F901F90E8
:102ED00018951F920F920FB60F9211242F933F93C4
:102EE0004F935F936F937F938F939F93AF93BF9312
:102EF000EF93FF938091E10082FF09C08091E2008F
:102F000082FF05C08091E1008B7F8093E10080917A
:102F1000DA0080FF24C08091D80080FF20C080911B
:102F2000DA008E7F8093DA008091D90080FF9DC007
:102F300080E189BD82E189BD09B400FEFDCF81E059
:102F400080937B0280916E02811109C00E94110260
:102F50000E94DC028091E20084608093E200809114
:102F6000E10080FF17C08091E20080FF13C08091D4
:102F7000E2008E7F8093E2008091E2008061809386
:102F8000E2008091D80080628093D80019BC85E06F
:102F900080937B028091E10084FF2BC08091E2004E
:102FA00084FF27C080E189BD82E189BD89B5982F62
:102FB000917080FFFBCF8091D8008F7D8093D800E7
:102FC0008091E1008F7E8093E1008091E2008F7E0E
:102FD0008093E2008091E20081608093E200809122
:102FE0007C02882309F447C084E080937B028091AF
:102FF0007B028091E10083FF27C08091E20083FF84
:1030000023C08091E100877F8093E10082E080937C
:103010007B0210927C028091E1008E7F8093E10020
:103020008091E2008E7F8093E2008091E2008061D7
:103030008093E20042E060E080E00E94AA0280917A
:10304000F00088608093F000FF91EF91BF91AF9105
:103050009F918F917F916F915F914F913F912F91B0
:103060000F900FBE0F901F90189519BC10927B0205
:1030700010926E0274CF8091E30087FD93E09093ED
:103080007B02B5CF78941F921FB61F9211248F93A5
:103090009F93AF93BF938091670290916802A09134
:1030A0006902B0916A020196A11DB11D8093670269
:1030B00090936802A0936902B0936A02BF91AF91A6
:1030C0009F918F911F901FBE1F9018951F921FB642
:1030D0001F9211248F939F93AF93BF9380916602A9
:1030E000811113C08091670290916802A0916902DA
:1030F000B0916A024196A11DB11D80936702909321
:103100006802A0936902B0936A02BF91AF919F9148
:103110008F911F901FBE1F901895CDB7DEB7A39754
:103120000FB6F894DEBF0FBECDBF84B7877F84BFD4
:103130000FB6F894A8958091600088618093600034
:10314000109260000FBE80E890E00FB6F894809374
:103150006100909361000FBE85B7806885BF85B719
:10316000806885BF83EF93E09093970180939601E9
:103170000E9411020E94DC028091E2008460809330
:10318000E200789480917B028823A1F01091E900FD
:103190001F709091EC00892F817090FD80E8182BB2
:1031A0001092E9008091E80083FD0E94FE0A1F70E2
:1031B0001093E90082E084BD93E095BD9AEF97BD3E
:1031C00080936E00109234021092350210923602F3
:1031D000109237020E949E07809336010E949E073C
:1031E00081110E94BC1A80913601811121C08EE1AB
:1031F000E4E4F1E0DE01119601900D928A95E1F789
:1032000030E020E0C90146E0FC01E85EFE4FA1E0AD
:10321000B0E0AC0FBD1FA80FB91F5C9150834150A7
:1032200001964111F1CF2A5F3F4F2E31310551F701
:103230008091360195E0811190E09093430285E002
:10324000891B8093420228E131E061E070E0D901FE
:1032500050E040E08D918F3F91F0E82FE295EF70C4
:10326000F0E0F1A08F708B0101C0000F8A95EAF7A2
:10327000902F90959F2191A382A1802B82A34F5FD5
:103280005F4F4630510531F72A5F3F4F81E02633CB
:103290003807E9F68AE0EAE4F2E0DF01282F1D9220
:1032A0002A95E9F7E8E3F2E0DF011D928A95E9F754
:1032B00090E080E00E942D1C893E9E4F11F00E94FC
:1032C000100F82E090E00E94251C809354020E941F
:1032D000D10790934902809348020E94EE088FE341
:1032E0009CE90197F1F700C000000E94EE08809170
:1032F0004A0280FF08C06FEF7FEF90E080E00E94FD
:10330000511C0E943B0783E090E00E94251C682F1F
:1033100070E090E080E00E94E90A0E949E0781111F
:1033200002C00E94BF1A87E391E0909363028093EA
:10333000620288E1C82ED12C90E4792E24E5A22ED9
:1033400022E0B22E30E1832E80917B0212E18530A3
:1033500009F475C00E94EE0881110E94AF03AAE42F
:10336000B2E0E5E5F2E010E000E0602EED90819142
:103370008E1509F473C08E25912CFF24F3949F2D94
:10338000982309F466C00E949E07882399F09982C9
:103390006A82EF2081E009F480E08B830E94BB0306
:1033A0008160782F9D838C8349815A816B818D81C7
:1033B0000E949516F801EB5AFD4F8081F826F082A5
:1033C0000E949E070E94C10790915F02891709F42D
:1033D000BBCF80935F02B8CF80917B02843009F12C
:1033E000109266020FB6F894A895C09260000FBEC6
:1033F0007092600083B7817F846083BF83B78160F0
:1034000083BF7894889583B78E7F83BF0FB6F89477
:10341000A8958091600088618093600010926000A0
:103420000FBE80917A02882351F00E94EE08EAE4F0
:10343000F2E08191811129C0AE16BF06D1F78091CB
:103440007B02853009F4C8CF0E94F30A0E94C107AD
:1034500081CF9394FF0C96E0991291CF0F5F1F4F8D
:103460000A30110509F081CF8FEF8F8F88A319A241
:103470000E94BB038160782F9BA38AA34F8D58A124
:1034800069A18BA10E9495169BCF89BC19BD09B477
:1034900000FEFDCF8091D8008F7D8093D800809171
:1034A000E00082608093E0008091E00081FDFCCF2D
:1034B0000E94F30AC4CF8EE14A9B02C08150E1F71B
:1034C0004A9BFECF08955A9880E28A95F1F75A9A5E
:1034D0000895FC013BE03A95F1F798E020E080E0A8
:1034E00031E040E14A95F1F7880F4A9B02C08160C4
:1034F000232742E04A95F1F7000040E14A95F1F7B1
:10350000915079F790E19A95F1F799B132E03A95B7
:10351000F1F7000040E14A95F1F792FB992790F905
:1035200092272081920F90830895EF92FF920F933C
:103530001F93CF93DF930F92CDB7DEB719828C0123
:103540007C01E60EF11C0E151F0561F481E09981E6
:10355000911180E00F90DF91CF911F910F91FF901B
:10356000EF9008950E945B1ACE0101960E94691A9D
:10357000F80181938F01E7CF529A5A9A0895529891
:103580005A9AEA9AE9E6F0E080818F7C8083089578
:103590006150770B91E001C0990F6A95EAF720E03E
:1035A00031E0911108C0222391F05A9A80E28A9565
:1035B000F1F75A980895492F482339F05A9A23274A
:1035C00040E24A95F1F79695ECCF5A98F9CF5A9880
:1035D000EDCFFF920F931F93CF93DF93EC018C01FC
:1035E000060F111DC017D10731F4DF91CF911F9144
:1035F0000F91FF900895F9900E94631A68E08F2D53
:103600000E94C81AEFCF1F920F920FB60F9211248B
:103610000F931F932F933F934F935F936F937F93DA
:103620008F939F93AF93BF93EF93FF93CF93DF93CA
:103630000F92CDB7DEB719820E945B1ACE010196B8
:103640000E94691A082F069506950695282F22953F
:103650002570902F9570290F922F9370269526959F
:10366000920F982797708981982B09F05CC00430DD
:1036700008F059C080E18A95F1F75A9A529A82E08F
:103680008A95F1F700C05A9888E0089F80011124BC
:10369000D801A050BF4F1696ED91FC911797309727
:1036A000A9F0609193017091940114962D913C9131
:1036B0001597260F371F11968D919C911297680FC1
:1036C000791F13964C9113978C910995F801E0504E
:1036D000FF4F6381662351F0209193013091940153
:1036E00084819581820F931F0E94E91A0E94631AB8
:1036F00080E18A95F1F75A9852985A9A80E18A9512
:10370000F1F7F801E050FF4F6081662351F02091FE
:1037100093013091940181819281820F931F0E94C5
:10372000951A0E945B1A0F90DF91CF91FF91EF9154
:10373000BF91AF919F918F917F916F915F914F91C9
:103740003F912F911F910F910F900FBE0F901F90DF
:1037500018950F931F93CF93DF93EC0104970CF010
:103760004CC0F894529A5A9885E08A95F1F7000077
:103770009C2F969595708C2F8570980F892F83704C
:103780009695969523E0CC0FDD1F2A95E1F7980FCB
:103790008E01092B0E94631A00C068E0802F0E94EE
:1037A000C81A80E18A95F1F752985A9A4A9B1EC02E
:1037B00087E090E04A991CC0FE01E050FF4F638112
:1037C0006623F9F0209193013091940184819581D1
:1037D000820F931F0E94951A811113C0529A5A9A10
:1037E0007894DF91CF911F910F91089500C0DECFA3
:1037F000019729F4529A5A9A789480E0F2CF00C047
:10380000D9CF0E945B1A80E28A95F1F75A98529AB2
:1038100080E18A95F1F7C050DF4F6881662351F04F
:10382000209193013091940189819A81820F931F95
:103830000E94E91A0E94631A789481E0D2CFEE0FB9
:10384000FF1F0590F491E02D0994F999FECF92BDE8
:1038500081BDF89A992780B50895A8E1B0E042E0CB
:1038600050E00C94591C262FF999FECF92BD81BDD2
:10387000F89A019700B4021639F01FBA20BD0FB6AE
:10388000F894FA9AF99A0FBE08950396272F0E948A
:10389000341C0E94331C252F0E94341C242F0C94AE
:1038A000341C0196272F0E94341C0C94331CDC011D
:1038B000CB01FC01F999FECF06C0F2BDE1BDF89A3B
:1038C000319600B40D9241505040B8F70895FB0175
:1038D000DC0104C08D910190801921F441505040C9
:1038E000C8F7881B990B0895FB01DC0102C0019009
:1038F0000D9241505040D8F70895F894FFCFE20B55
:103900000A0CA20D0A0CA20D3D0C5E0CA20D5B0D63
:10391000680DBD11BD11F611F611A912251225125F
:0A3920002512C3129913A813A8136F
:10392A000000000100000000000000050100000086
:10393A00040600000000000030FFFFFFFFFFF6F75B
:10394A0032363734F531F0673597F433F195C66678
:10395A00FFFF94909193019D030E079C030A0706AB
:10396A00079B030193FFFFFFFFFF94663435F03294
:10397A0090973767363191C695F133F7FFFFF6F521
:10398A00F430818283E200E900EA00B500B600B7AC
:10399A0000CD008301CC008A019201940121022307
:1039AA000224022502260227022A02B300B4006F6B
:0639BA0000700025020070
:00000001FF
